:060000000A128A11F32F21
:10000A0070088312031386007108F3007008F20067
:10001A007308F200F30101307205F4000708740650
:10002A00FE39740687007108F3007008F20009307F
:10003A000310F30CF20CFF3E031D1D287208013950
:10004A00F400F40D07087406FD39740687000800E9
:10005A0083120313A00020080319342835284928DD
:10006A00F51F3828392849287209A2007309A30004
:10007A007409A4007509A500A20A0319A30A0319A1
:10008A00A40A0319A50A51287508A5007408A40032
:10009A007308A3007208A20075087404730472043A
:1000AA00031D5828592862280030F5000030F40052
:1000BA000030F3000030F200E2289630A1007028E8
:1000CA000130A10701300310A50CA40CA30CA20C4B
:1000DA00FF3E031D6828FE302505031D7528762876
:1000EA00652890280130A1070130A20700300318C3
:1000FA000130A307003003180130A40700300318A9
:10010A000130A50701300310A50CA40CA30CA20C06
:10011A00FF3E031D8828FF302505031D95289628D4
:10012A007728A2280130A1020130F6000310A20D9F
:10013A00A30DA40DA50DF60B9B28A41BA528A62884
:10014A00AC28023021020318AB28AC2897282118C2
:10015A00AF28B028B828FF30A205FF30A3057F30AA
:10016A00A405FF30A5050310A10C2108F600F7012C
:10017A00F801F90118300310F60DF70DF80DF90D15
:10018A00FF3E031DC0287608A2047708A304780856
:10019A00A4047908A50420080319D428D528DA2844
:1001AA00F51FD828D928DA28A5172508F500240824
:1001BA00F4002308F3002208F20008003B308312FF
:1001CA000313A3000030A2007330A1005830A0002E
:1001DA00831603132F0883120313A700831603132E
:1001EA002E0883120313A600831603132D08831205
:1001FA000313A500831603132C0883120313A40008
:10020A000A128A11B1240A128A11831203132308CB
:10021A00B8002208B7002108B6002008B5003A3015
:10022A00A3008030A2007330A1005830A000540807
:10023A00A7005308A6005208A5005108A4000A12F4
:10024A008A11B1240A128A11831203132308BC00EB
:10025A002208BB002108BA002008B9000A128A1134
:10026A0061220A128A11831203133808D800370848
:10027A00D7003608D6003508D5003A30A3008030BA
:10028A00A2007330A1005830A000831603132B0874
:10029A0083120313A700831603132A088312031376
:1002AA00A60083160313290883120313A5008316D5
:1002BA000313280883120313A4000A128A11B12413
:1002CA000A128A11831203132308B8002208B700FE
:1002DA002108B6002008B5005808BC005708BB0022
:1002EA005608BA005508B9000A128A1161220A1280
:1002FA008A11831203133808DC003708DB0036083A
:10030A00DA003508D900BF30A300F730A200433025
:10031A00A1009630A0008316031327088312031343
:10032A00A70083160313260883120313A600831655
:10033A000313250883120313A50083160313240845
:10034A0083120313A4000A128A11B1240A128A1111
:10035A00831203132308CC002208CB002108CA0009
:10036A002008C9005C08D0005B08CF005A08CE00FC
:10037A005908CD000A128A1510260A128A11831208
:10038A0003134C08E0004B08DF004A08DE00490866
:10039A00DD003F30A3006F30A2008830A100123088
:1003AA00A00083160313230883120313A7008316DE
:1003BA000313220883120313A600831603132108CA
:1003CA0083120313A5008316031320088312031351
:1003DA00A4000A128A11B1240A128A118312031381
:1003EA002308CC002208CB002108CA002008C90033
:1003FA006008D0005F08CF005E08CE005D08CD001F
:10040A000A128A1510260A128A11831203134C083B
:10041A00E4004B08E3004A08E2004908E1008316B9
:10042A0003132F08AB002E08AA002D08A9002C08D8
:10043A00A80083120313540883160313AF00831210
:10044A000313530883160313AE00831203135208CF
:10045A0083160313AD008312031351088316031383
:10046A00AC002708A3002608A2002508A10024083A
:10047A00A00083120313640883160313A7008312D0
:10048A000313630883160313A60083120313620877
:10049A0083160313A500831203136108831603133B
:1004AA00A400831203136408D4006308D30062080B
:1004BA00D2006108D1000800831203133808C5006E
:1004CA008030C5053808BD003D07C700B71F6E2A32
:1004DA006F2A702A471447080319742A752A852A2D
:1004EA00470A031D792A7A2A822A0030B800003086
:1004FA00B7000030B6000030B500B717B8018D2A32
:10050A000030B8000030B7000030B6000030B50047
:10051A003C08C6008030C605460845060319962AD7
:10052A00972A982A45173C08BD003D07C600BB1FFD
:10053A009F2AA02AA12A461446080319A52AA62AF0
:10054A00B62A460A031DAA2AAB2AB32A0030BC00DF
:10055A000030BB000030BA000030B900BB17BC0144
:10056A00BE2A0030BC000030BB000030BA000030A8
:10057A00B900470846020318C32AC42AE82A451FB5
:10058A00C72AC82ACA2A8030C5064708C8004608AA
:10059A00C7004808C6003508C8003908B500480829
:1005AA00B9003608C8003A08B6004808BA00370841
:1005BA00C8003B08B7004808BB003808C8003C0818
:1005CA00B8004808BC00C8014608BD00BE013E0884
:1005DA00C00047083D02BF00031CC0034008803A20
:1005EA00FF0080307F02031DFC2A1A303F02031CE1
:1005FA00FF2A002B352B83120313380837043604DD
:10060A003504031D092B0B2B01300C2B0030C800BD
:10061A000030B8000030B7000030B6000030B50036
:10062A004608C7003D2B481C1B2B1C2B232B4808B4
:10063A00BD0003103D0C0138C800252B0310C80C5F
:10064A00351C282B292B2A2BC8170130BD00380D41
:10065A00B80CB70CB60CB50CBD0B2C2B0130C70768
:10066A008312031346084702031C3C2B3D2B182B0D
:10067A00451B402B412B882B4708031D452B462B36
:10068A004F2B0030B8000030B7000030B600003001
:10069A00B500B02C3908B5073A0803110318013E12
:1006AA000319582BB6073B0803110318013E031917
:1006BA005F2BB7073C0803110318013E0319662B89
:1006CA00B807381C692B6A2B3C2C481C6D2B6E2BE7
:1006DA00752B4808BD0003103D0C0138C800772B64
:1006EA000310C80C351C7A2B7B2B7C2BC8170130C6
:1006FA00BD00380DB80CB70CB60CB50CBD0B7E2B73
:10070A000130C7073C2C3808803AFF003C08803A81
:10071A007F02031D9A2B3B083702031D9A2B3A08C6
:10072A003602031D9A2B3908350203189D2B9E2B7E
:10073A00F52BFF30BD00FF30BE00FF30BF00FF3099
:10074A00C0003908C1003A08C2003B08C3003C088F
:10075A00C4003508C1023608031C360FB52BB62B68
:10076A00C2023708031C370FBB2BBC2BC302380845
:10077A00031C380FC12BC22BC4024108BD07420813
:10078A000318420FC92BCA2BBE0743080318430F8D
:10079A00CF2BD02BBF0744080318440AC0074008D0
:1007AA00B8003F08B7003E08B6003D08B5008030E3
:1007BA00C5064803FF3AC8004808031DE52BE62B87
:1007CA00032C0130B507003003180130B60700309A
:1007DA0003180130B707003003180130B807032C9B
:1007EA003908B5023A08031C3A0FB6023B08031C43
:1007FA003B0FB7023C08031C3C0FB8023808370409
:10080A0036043504031D0A2C0B2C382C4808031D0A
:10081A000F2C102C382C0030B8000030B7000030F4
:10082A00B6000030B500B02C0130BD000310B50D84
:10083A00B60DB70DB80DBD0B1B2CC81F252C262CC9
:10084A00272C3514481C2A2C2B2C2F2C0314480D2A
:10085A00C800312C0310C80D47080319352C362C53
:10086A00382C0130C702B71F3B2C3C2C192CC6016F
:10087A00C81F402C412C4F2C48087F390319462C9D
:10088A00472C4A2C0130C6004F2C351C4D2C4E2CBF
:10089A004F2C472C46080319532C542C862C013014
:1008AA00B507003003180130B607003003180130CD
:1008BA00B707003003180130B807381C652C662CBE
:1008CA00862C3508BD003608BE003708BF00380838
:1008DA00C0000130C100400DC00CBF0CBE0CBD0CE5
:1008EA00C10B702C4008B8003F08B7003E08B6009C
:1008FA003D08B500470A0319832C842C862C013045
:10090A00C707470A03198A2C8B2C902C4708031D0A
:10091A008F2C902C9E2C0030B8000030B70000308D
:10092A00B6000030B5004708031D9C2C9D2C9E2C58
:10093A00C501471CA12CA22CA42CB717A62C7F30CA
:10094A00B7054708BD0003103D0CB800C51FAE2C03
:10095A00AF2CB02CB8170800831203132308A80081
:10096A008030A8052308F9007907AE00A21FBE2C23
:10097A00BF2CC02C2E142E080319C42CC52CD42C21
:10098A002E0A031DC92CCA2CD22C0030A300003019
:10099A00A2000030A1000030A000A217DC2C003019
:1009AA00A3000030A2000030A1000030A0002708F8
:1009BA008039A8062708F9007907AD00A61FE62C9A
:1009CA00E72CE82C2D142D080319EC2CED2CFC2C0B
:1009DA002D0A031DF12CF22CFA2C0030A70000304E
:1009EA00A6000030A5000030A400A617042D003090
:1009FA00A7000030A6000030A5000030A4002D0892
:100A0A000319082D092D0E2D2E08031D0D2D0E2D4F
:100A1A00172D0030A3000030A2000030A1000030E2
:100A2A00A000F22F2008F00026080A128A153426A0
:100A3A000A128A11710883120313B4007008B300F2
:100A4A003308F900FA01FB01FC017C08AC007B08C1
:100A5A00AB007A08AA007908A9003408F900FA015B
:100A6A00FB01FC017C08B2007B08B1007A08B000E7
:100A7A007908AF002108F00025080A128A153426E1
:100A8A000A128A11710883120313B4007008B300A2
:100A9A003308F900FA01FB01FC017908A9077A0871
:100AAA0003110318013E03195B2DAA077B080311E2
:100ABA000318013E0319622DAB077C0803110318C2
:100ACA00013E0319692DAC073408F900FA01FB014C
:100ADA00FC017908AF077A0803110318013E0319CC
:100AEA00772DB0077B0803110318013E03197E2DE9
:100AFA00B1077C0803110318013E0319852DB207BB
:100B0A002208F00024080A128A1534260A128A11C9
:100B1A00710883120313B4007008B3003308F90094
:100B2A00FA01FB01FC017908A9077A0803110318E5
:100B3A00013E0319A12DAA077B0803110318013EE0
:100B4A000319A82DAB077C0803110318013E0319EA
:100B5A00AF2DAC073408F900FA01FB01FC01790852
:100B6A00AF077A0803110318013E0319BD2DB00718
:100B7A007B0803110318013E0319C42DB1077C0831
:100B8A0003110318013E0319CB2DB2070830F900EF
:100B9A000310A90DAA0DAB0DAC0DF90BCD2D210833
:100BAA00F00024080A128A1534260A128A117108DA
:100BBA0083120313B4007008B3003308F900340831
:100BCA00FA00FB01FC017908A9077A080311031846
:100BDA00013E0319F12DAA077B0803110318013EF0
:100BEA000319F82DAB077C0803110318013E0319FA
:100BFA00FF2DAC072008F00025080A128A153426B2
:100C0A000A128A11710883120313B4007008B30020
:100C1A003308F9003408FA00FB01FC017908A90736
:100C2A007A0803110318013E03191C2EAA077B0830
:100C3A0003110318013E0319232EAB077C08031185
:100C4A000318013E03192A2EAC070830F9000310D5
:100C5A00A90DAA0DAB0DAC0DF90B2C2E2008F00036
:100C6A0024080A128A1534260A128A117108831274
:100C7A000313B4007008B3003308F9003408FA000B
:100C8A00FB01FC017908A9077A0803110318013E40
:100C9A000319502EAA077B0803110318013E0319F2
:100CAA00572EAB077C0803110318013E03195E2E69
:100CBA00AC072108F00026080A128A1534260A12FF
:100CCA008A11710883120313B4007008B300330841
:100CDA00F9003408FA00FB01FC017908AF077A0829
:100CEA0003110318013E03197B2EB0077B08031179
:100CFA000318013E0319822EB1077C080311031859
:100D0A00013E0319892EB2072208F00025080A12AB
:100D1A008A1534260A128A11710883120313B40041
:100D2A007008B3003308F9003408FA00FB01FC012B
:100D3A007908AF077A0803110318013E0319A62E92
:100D4A00B0077B0803110318013E0319AD2EB10742
:100D5A007C0803110318013E0319B42EB2072208B6
:100D6A00F00026080A128A1534260A128A11710816
:100D7A0083120313B4007008B3003308F90034086F
:100D8A00FA00FB01FC0108300310F90DFA0DFB0D06
:100D9A00FC0DFF3E031DC92E7908AF077A0803111F
:100DAA000318013E0319DA2EB0077B080311031852
:100DBA00013E0319E12EB1077C0803110318013E15
:100DCA000319E82EB2072908F9002A08FA002B08A5
:100DDA00FB002C08FC0018300310FC0CFB0CFA0C6E
:100DEA00F90CFF3E031DF12E7908AF077A080311AB
:100DFA000318013E0319022FB0077B0803110318D9
:100E0A00013E0319092FB1077C0803110318013E9B
:100E1A000319102FB2070830F9000310A90DAA0D03
:100E2A00AB0DAC0DF90B122F2E082D07F900FA01A4
:100E3A00FA0D7908823EB3007A080318013EFF3E94
:100E4A00B400442F0130F9000310AF0DB00DB10DFD
:100E5A00B20DF90B292FAC1F332F342F352F2F1436
:100E6A000130F9000310A90DAA0DAB0DAC0DF90B59
:100E7A00372FFF30B3070318B40AFF30B407B11F86
:100E8A00472F482F272FAD01AC1F4C2F4D2F692F0D
:100E9A00FF302905F900FF302A05FA00FF302B053B
:100EAA00FB007F302C05FC007C087B047A04790463
:100EBA000319602F612F642F0130AD00692F2F1C99
:100ECA00672F682F692F612F2D0803196D2F6E2F39
:100EDA009F2F0130AF07003003180130B0070030F0
:100EEA0003180130B107003003180130B207321C71
:100EFA007F2F802F9F2F2F08F9003008FA00310822
:100F0A00FB003208FC000130FD007C0DFC0CFB0CE0
:100F1A00FA0CF90CFD0B8A2F7C08B2007B08B10091
:100F2A007A08B0007908AF000130B3070318B40A91
:100F3A000030B4073408803AFF0080307F02031D76
:100F4A00A82FFF303302031CAB2FAC2FB72F7F30F3
:100F5A0083120313B2008030B1000030B0000030B9
:100F6A00AF00E82F831203133408803AFF00803061
:100F7A007F02031DC22F013033020318C52FC62F6B
:100F8A00D22F003083120313B2000030B1000030B8
:100F9A00B0000030AF00A801E82F83120313330812
:100FAA00AE00FF30AF05FF30B0057F30B10500302D
:100FBA00B2052E1CE12FE22FE32FB1172E08F900FC
:100FCA000310790CB2002808B2043208A3003108D1
:100FDA00A2003008A1002F08A00008008313A03047
:100FEA008400B0300A128A15CD250A128A118301AB
:100FFA000A128A15CF2E08308A000408840A82074A
:10100A000034123488346F343F3496344334F7341E
:10101A00BF345834733480343A3458347334003417
:0A102A003B345834733480343A34F8
:101B8A00831603130514860107108710071108002E
:101B9A0064008001840A0406031900340406CE2D69
:101BAA008130831203139F008030831603139F0032
:101BBA000800831203131F151F19E42DE52DE12DCB
:101BCA001E08F100831603131E08F00008000A120B
:101BDA008A15DE250A128A157008FA007108FB00B8
:101BEA00FC01FD017D08F5007C08F4007B08F30088
:101BFA007A08F20000300A128A112D200A128A1578
:101C0A00750883120313A9007408A8007308A700B3
:101C1A007208A6000800803083120313CC0650080D
:101C2A00B8004F08B7004E08B6004D08B5004C087A
:101C3A00BC004B08BB004A08BA004908B9000A129E
:101C4A008A1161220A128A15831203133808CC00FA
:101C5A003708CB003608CA003508C9000800F80062
:101C6A00F401F5017008F200F3017208F600730836
:101C7A00F700781C412E422E482E7608F4070318E6
:101C8A00F50A7708F50701300310F60DF70DFF3E48
:101C9A00031D492E0310F80C7808031D552E562EE5
:101CAA003E2E7508F1007408F00008000310720D4A
:101CBA00730DF9007908031D632E642E6D2E003012
:101CCA00F3000030F2000030F1000030F000CE2EB8
:101CDA007008F4007108F5007208F6007308F7003E
:101CEA001F300310F70CF60CF50CF40CFF3E031D25
:101CFA00762E7408F800F217FF30F005FF30F10570
:101D0A00FF30F2050030F3059630F902F91F8E2EE6
:101D1A008F2EA72E7908803A973E0318952E962E75
:101D2A00972E642E01300310F30CF20CF10CF00C18
:101D3A00FF3E031D982E0130F907031DA52EA62E7E
:101D4A00972EBE2E20307902031CAC2EAD2EB92E52
:101D5A00642E0130F4000310F00DF10DF20DF30DB5
:101D6A00F40BB02E0130F9027908031DBD2EBE2EE8
:101D7A00AE2E78080319C22EC32ECE2EF009F10911
:101D8A00F209F309F00A0319F10A0319F20A03190D
:101D9A00F30A08000A128A15C5250A128A150A12B8
:101DAA008A15D5250A128A15523083120313E500C3
:101DBA00E50BDD2E00008312031307150A128A159C
:101DCA00EC250A128A15831203132908E900280848
:101DDA00E8002708E7002608E6006908D400680832
:101DEA00D3006708D2006608D1000A128A11E320DC
:101DFA000A128A15831203135408ED005308EC00E3
:101E0A005208EB005108EA006D08F3006C08F20072
:101E1A006B08F1006A08F0000030F7000030F600A5
:101E2A000030F5000030F4000A128A155E270A1203
:101E3A008A150318212F222F2C2F00308312031307
:101E4A00ED000030EC000030EB000030EA008312B5
:101E5A0003136D08F3006C08F2006B08F1006A08BE
:101E6A00F0000A128A155B260A128A157108831273
:101E7A000313EF007008EE0004306F0200300319FC
:101E8A006E02031C492F4A2F4E2FFF30EE000330FB
:101E9A00EF006F08F1006E08F0000A128A1105209F
:101EAA000A128A15831203130711E02E0A128A11E5
:101EBA00002800307005F80000307105F900803004
:101ECA007205FA007F307305FB007B087A047904F7
:101EDA007804031D712F722F7A2F0030F30000301F
:101EEA00F2000030F1000030F00000307405F80014
:101EFA0000307505F90080307605FA007F307705E5
:101F0A00FB007B087A0479047804031D8D2F8E2F39
:101F1A00962F0030F7000030F6000030F500003050
:101F2A00F400F31F992F9A2FBE2F0030F8000030CB
:101F3A00F9000030FA008030FB007008F8027108DE
:101F4A00031C710FA92FAA2FF9027208031C720F22
:101F5A00AF2FB02FFA027308031C730FB52FB62FD9
:101F6A00FB027B08F3007A08F2007908F10078088E
:101F7A00F000F71FC12FC22FE62F0030F800003003
:101F8A00F9000030FA008030FB007408F802750886
:101F9A00031C750FD12FD22FF9027608031C760F76
:101FAA00D72FD82FFA027708031C770FDD2FDE2FE1
:101FBA00FB027B08F7007A08F6007908F500780832
:101FCA00F4008030F3068030F70677087302031DA9
:101FDA00F82F76087202031DF82F75087102031D87
:101FEA00F82F740870020318FB2FFC2FFE2F031022
:061FFA00FF2F0314080094
:02400E003A3F37
:00000001FF
