:100000000A128A11FC2F00308A000408840A820731
:1000100000346F34403441343F343C343334DC34C6
:10002000BF3490349F340D343C3490349F348D343D
:0A0030003C3490349F340D343C340E
:10003E00F800F401F5017008F200F3017208F60001
:10004E007308F700781C2C282D2833287608F4071F
:10005E000318F50A7708F50701300310F60DF70DB2
:10006E00FF3E031D34280310F80C7808031D4028AA
:10007E00412829287508F1007408F0000800831241
:10008E000313A000200803194D284E286228F51FDF
:10009E005128522862287209A2007309A30074091C
:1000AE00A4007509A500A20A0319A30A0319A40A3C
:1000BE000319A50A6A287508A5007408A400730818
:1000CE00A3007208A2007508740473047204031D61
:1000DE00712872287B280030F5000030F4000030C3
:1000EE00F3000030F200FB289630A1008928013081
:1000FE00A10701300310A50CA40CA30CA20CFF3E0B
:10010E00031D8128FE302505031D8E288F287E288D
:10011E00A9280130A1070130A207003003180130D1
:10012E00A307003003180130A40700300318013074
:10013E00A50701300310A50CA40CA30CA20CFF3EC6
:10014E00031DA128FF302505031DAE28AF289028DA
:10015E00BB280130A1020130F6000310A20DA30D41
:10016E00A40DA50DF60BB428A41BBE28BF28C528C8
:10017E00023021020318C428C528B0282118C82827
:10018E00C928D128FF30A205FF30A3057F30A40572
:10019E00FF30A5050310A10C2108F600F701F801A8
:1001AE00F90118300310F60DF70DF80DF90DFF3E9D
:1001BE00031DD9287608A2047708A3047808A4049E
:1001CE007908A50420080319ED28EE28F328F51F59
:1001DE00F128F228F328A5172508F5002408F400C5
:1001EE002308F3002208F20008003C3083120313A8
:1001FE00A3008D30A2009F30A1009030A0006C08AB
:10020E00A7006B08A6006A08A5006908A4000A12D8
:10021E008A11BA240A128A11831203132308B80012
:10022E002208B7002108B6002008B5003C30A30014
:10023E000D30A2009F30A1009030A0005408A700FE
:10024E005308A6005208A5005108A4000A128A11EC
:10025E00BA240A128A11831203132308BC0022083F
:10026E00BB002108BA002008B9000A128A116A22BE
:10027E000A128A11831203133808D8003708D700E0
:10028E003608D6003508D5003C30A3000D30A2004C
:10029E009F30A1009030A000831603132B08831209
:1002AE000313A700831603132A0883120313A60051
:1002BE0083160313290883120313A5008316031351
:1002CE00280883120313A4000A128A11BA240A12F0
:1002DE008A11831203132308B8002208B7002108DD
:1002EE00B6002008B5005808BC005708BB005608D9
:1002FE00BA005508B9000A128A116A220A128A1126
:10030E00831203133808DC003708DB003608DA00E6
:10031E003508D900BF30A300DC30A2003330A10075
:10032E003C30A00083160313270883120313A70083
:10033E0083160313260883120313A60083160313D2
:10034E00250883120313A5008316031324088312B2
:10035E000313A4000A128A11BA240A128A118312F4
:10036E0003132308CC002208CB002108CA00200862
:10037E00C9005C08D0005B08CF005A08CE005908AF
:10038E00CD000A128A15C8250A128A118312031388
:10039E004C08E0004B08DF004A08DE004908DD008B
:1003AE003F30A3004130A2004030A1006F30A000CA
:1003BE0083160313230883120313A7008316031354
:1003CE00220883120313A600831603132108831237
:1003DE000313A50083160313200883120313A4002E
:1003EE000A128A11BA240A128A11831203132308DD
:1003FE00CC002208CB002108CA002008C9006008E2
:10040E00D0005F08CF005E08CE005D08CD000A1256
:10041E008A15C8250A128A11831203134C08E400A8
:10042E004B08E3004A08E2004908E1006C08831615
:10043E000313AB00831203136B0883160313AA0076
:10044E00831203136A0883160313A900831203137E
:10045E00690883160313A800831203135408EC00D3
:10046E005308EB005208EA005108E9008316031303
:10047E002708A3002608A2002508A1002408A00032
:10048E0083120313640883160313A7008312031346
:10049E00630883160313A6008312031362088316E0
:1004AE000313A50083120313610883160313A4001C
:1004BE00831203136408D4006308D3006208D200C9
:1004CE006108D1000800831203133808C50080307C
:1004DE00C5053808BD003D07C700B71F772A782A23
:1004EE00792A4714470803197D2A7E2A8E2A470A3D
:1004FE00031D822A832A8B2A0030B8000030B700F1
:10050E000030B6000030B500B717B801962A00309B
:10051E00B8000030B7000030B6000030B5003C081F
:10052E00C6008030C6054608450603199F2AA02A34
:10053E00A12A45173C08BD003D07C600BB1FA82ACF
:10054E00A92AAA2A461446080319AE2AAF2ABF2A98
:10055E00460A031DB32AB42ABC2A0030BC00003060
:10056E00BB000030BA000030B900BB17BC01C72A6F
:10057E000030BC000030BB000030BA000030B900C3
:10058E00470846020318CC2ACD2AF12A451FD02A45
:10059E00D12AD32A8030C5064708C8004608C700AE
:1005AE004808C6003508C8003908B5004808B90023
:1005BE003608C8003A08B6004808BA003708C8001E
:1005CE003B08B7004808BB003808C8003C08B80014
:1005DE004808BC00C8014608BD00BE013E08C00068
:1005EE0047083D02BF00031CC0034008803AFF00CD
:1005FE0080307F02031D052B1A303F02031C082B8F
:10060E00092B3E2B831203133808370436043504A6
:10061E00031D122B142B0130152B0030C800003097
:10062E00B8000030B7000030B6000030B500460804
:10063E00C700462B481C242B252B2C2B4808BD000D
:10064E0003103D0C0138C8002E2B0310C80C351CAE
:10065E00312B322B332BC8170130BD00380DB80C9F
:10066E00B70CB60CB50CBD0B352B0130C70783127A
:10067E00031346084702031C452B462B212B451B13
:10068E00492B4A2B912B4708031D4E2B4F2B582BD2
:10069E000030B8000030B7000030B6000030B500B2
:1006AE00B92C3908B5073A0803110318013E03198E
:1006BE00612BB6073B0803110318013E0319682B83
:1006CE00B7073C0803110318013E03196F2BB80737
:1006DE00381C722B732B452C481C762B772B7E2BBC
:1006EE004808BD0003103D0C0138C800802B0310D4
:1006FE00C80C351C832B842B852BC8170130BD00ED
:10070E00380DB80CB70CB60CB50CBD0B872B0130E1
:10071E00C707452C3808803AFF003C08803A7F0214
:10072E00031DA32B3B083702031DA32B3A083602E9
:10073E00031DA32B390835020318A62BA72BFE2B5E
:10074E00FF30BD00FF30BE00FF30BF00FF30C000E5
:10075E003908C1003A08C2003B08C3003C08C40077
:10076E003508C1023608031C360FBE2BBF2BC20242
:10077E003708031C370FC42BC52BC3023808031CC4
:10078E00380FCA2BCB2BC4024108BD0742080318F1
:10079E00420FD22BD32BBE0743080318430FD82B7F
:1007AE00D92BBF0744080318440AC0074008B800F5
:1007BE003F08B7003E08B6003D08B5008030C506BC
:1007CE004803FF3AC8004808031DEE2BEF2B0C2CF4
:1007DE000130B507003003180130B607003003189A
:1007EE000130B707003003180130B8070C2C390858
:1007FE00B5023A08031C3A0FB6023B08031C3B0F26
:10080E00B7023C08031C3C0FB80238083704360404
:10081E003504031D132C142C412C4808031D182CD1
:10082E00192C412C0030B8000030B7000030B60053
:10083E000030B500B92C0130BD000310B50DB60D5A
:10084E00B70DB80DBD0B242CC81F2E2C2F2C302C01
:10085E003514481C332C342C382C0314480DC80086
:10086E003A2C0310C80D470803193E2C3F2C412C7F
:10087E000130C702B71F442C452C222CC601C81FBD
:10088E00492C4A2C582C48087F3903194F2C502CD0
:10089E00532C0130C600582C351C562C572C582C76
:1008AE00502C460803195C2C5D2C8F2C0130B5079B
:1008BE00003003180130B607003003180130B707B7
:1008CE00003003180130B807381C6E2C6F2C8F2C9B
:1008DE003508BD003608BE003708BF003808C00016
:1008EE000130C100400DC00CBF0CBE0CBD0CC10BC5
:1008FE00792C4008B8003F08B7003E08B6003D0806
:10090E00B500470A03198C2C8D2C8F2C0130C7078C
:10091E00470A0319932C942C992C4708031D982CE5
:10092E00992CA72C0030B8000030B7000030B6006C
:10093E000030B5004708031DA52CA62CA72CC50119
:10094E00471CAA2CAB2CAD2CB717AF2C7F30B7059C
:10095E004708BD0003103D0CB800C51FB72CB82CBE
:10096E00B92CB8170800831203132308A80080308F
:10097E00A8052308F9007907AE00A21FC72CC82CC2
:10098E00C92C2E142E080319CD2CCE2CDD2C2E0A9C
:10099E00031DD22CD32CDB2C0030A3000030A20080
:1009AE000030A1000030A000A217E52C0030A300FB
:1009BE000030A2000030A1000030A00027088039CE
:1009CE00A8062708F9007907AD00A61FEF2CF02C1A
:1009DE00F12C2D142D080319F52CF62C052D2D0AAE
:1009EE00031DFA2CFB2C032D0030A7000030A600AF
:1009FE000030A5000030A400A6170D2D0030A70072
:100A0E000030A6000030A5000030A4002D08031908
:100A1E00112D122D172D2E08031D162D172D202DDD
:100A2E000030A3000030A2000030A1000030A00072
:100A3E00FB2F2008F00026080A128A111F200A1226
:100A4E008A11710883120313B4007008B3003308BF
:100A5E00F900FA01FB01FC017C08AC007B08AB003D
:100A6E007A08AA007908A9003408F900FA01FB01F6
:100A7E00FC017C08B2007B08B1007A08B00079084E
:100A8E00AF002108F00025080A128A111F200A1251
:100A9E008A11710883120313B4007008B30033086F
:100AAE00F900FA01FB01FC017908A9077A08031184
:100ABE000318013E0319642DAA077B0803110318BE
:100ACE00013E03196B2DAB077C0803110318013E81
:100ADE000319722DAC073408F900FA01FB01FC0171
:100AEE007908AF077A0803110318013E0319802D08
:100AFE00B0077B0803110318013E0319872DB107B8
:100B0E007C0803110318013E03198E2DB20722082B
:100B1E00F00024080A128A111F200A128A11710885
:100B2E0083120313B4007008B3003308F900FA01FE
:100B3E00FB01FC017908A9077A0803110318013E8D
:100B4E000319AA2DAA077B0803110318013E0319E6
:100B5E00B12DAB077C0803110318013E0319B82D04
:100B6E00AC073408F900FA01FB01FC017908AF0764
:100B7E007A0803110318013E0319C62DB0077B082E
:100B8E0003110318013E0319CD2DB1077C08031183
:100B9E000318013E0319D42DB2070830F9000310D3
:100BAE00A90DAA0DAB0DAC0DF90BD62D2108F00039
:100BBE0024080A128A111F200A128A117108831240
:100BCE000313B4007008B3003308F9003408FA00B8
:100BDE00FB01FC017908A9077A0803110318013EED
:100BEE000319FA2DAA077B0803110318013E0319F6
:100BFE00012EAB077C0803110318013E0319082EC2
:100C0E00AC072008F00025080A128A111F200A12CC
:100C1E008A11710883120313B4007008B3003308ED
:100C2E00F9003408FA00FB01FC017908A9077A08DB
:100C3E0003110318013E0319252EAA077B08031181
:100C4E000318013E03192C2EAB077C080311031861
:100C5E00013E0319332EAC070830F9000310A90D1D
:100C6E00AA0DAB0DAC0DF90B352E2008F0002408A3
:100C7E000A128A111F200A128A1171088312031395
:100C8E00B4007008B3003308F9003408FA00FB0111
:100C9E00FC017908A9077A0803110318013E03190C
:100CAE00592EAA077B0803110318013E0319602E63
:100CBE00AB077C0803110318013E0319672EAC071E
:100CCE002108F00026080A128A111F200A128A1122
:100CDE00710883120313B4007008B3003308F900CF
:100CEE003408FA00FB01FC017908AF077A080311FA
:100CFE000318013E0319842EB0077B080311031855
:100D0E00013E03198B2EB1077C0803110318013E17
:100D1E000319922EB2072208F00025080A128A1132
:100D2E001F200A128A11710883120313B40070086F
:100D3E00B3003308F9003408FA00FB01FC0179080E
:100D4E00AF077A0803110318013E0319AF2EB0073F
:100D5E007B0803110318013E0319B62EB1077C0858
:100D6E0003110318013E0319BD2EB2072208F0002D
:100D7E0026080A128A111F200A128A11710883127C
:100D8E000313B4007008B3003308F9003408FA00F6
:100D9E00FB01FC0108300310F90DFA0DFB0DFC0DE3
:100DAE00FF3E031DD22E7908AF077A0803110318F0
:100DBE00013E0319E32EB0077B0803110318013E11
:100DCE000319EA2EB1077C0803110318013E03191B
:100DDE00F12EB2072908F9002A08FA002B08FB00A9
:100DEE002C08FC0018300310FC0CFB0CFA0CF90C50
:100DFE00FF3E031DFA2E7908AF077A080311031878
:100E0E00013E03190B2FB0077B0803110318013E97
:100E1E000319122FB1077C0803110318013E0319A1
:100E2E00192FB2070830F9000310A90DAA0DAB0D4A
:100E3E00AC0DF90B1B2F2E082D07F900FA01FA0D38
:100E4E007908823EB3007A080318013EFF3EB400D3
:100E5E004D2F0130F9000310AF0DB00DB10DB20DD5
:100E6E00F90B322FAC1F3C2F3D2F3E2F2F1401308C
:100E7E00F9000310A90DAA0DAB0DAC0DF90B402F07
:100E8E00FF30B3070318B40AFF30B407B11F502F59
:100E9E00512F302FAD01AC1F552F562F722FFF3013
:100EAE002905F900FF302A05FA00FF302B05FB005B
:100EBE007F302C05FC007C087B047A04790403192E
:100ECE00692F6A2F6D2F0130AD00722F2F1C702FDE
:100EDE00712F722F6A2F2D080319762F772FA82FB7
:100EEE000130AF07003003180130B007003003188F
:100EFE000130B107003003180130B207321C882FC1
:100F0E00892FA82F2F08F9003008FA003108FB00AE
:100F1E003208FC000130FD007C0DFC0CFB0CFA0CC1
:100F2E00F90CFD0B932F7C08B2007B08B1007A08F8
:100F3E00B0007908AF000130B3070318B40A0030CF
:100F4E00B4073408803AFF0080307F02031DB12FB2
:100F5E00FF303302031CB42FB52FC02F7F30831206
:100F6E000313B2008030B1000030B0000030AF008B
:100F7E00F12F831203133408803AFF0080307F0272
:100F8E00031DCB2F013033020318CE2FCF2FDB2FB3
:100F9E00003083120313B2000030B1000030B000F5
:100FAE000030AF00A801F12F831203133308AE00F7
:100FBE00FF30AF05FF30B0057F30B1050030B20510
:100FCE002E1CEA2FEB2FEC2FB1172E08F900031071
:100FDE00790CB2002808B2043208A3003108A2002E
:100FEE003008A1002F08A000080083010A128A15FC
:020FFE00022FC0
:101B30008316031305148601870108008130831280
:101B400003139F008E30831603139F000800831237
:101B500003131F151F19AD2DAE2DAA2D1E08F10060
:101B6000831603131E08F000080070088312031385
:101B700086007108F3007008F2007308F200F301A8
:101B800003307205F4000708FC397404870008006C
:101B9000803083120313CC065008B8004F08B700FA
:101BA0004E08B6004D08B5004C08BC004B08BB0001
:101BB0004A08BA004908B9000A128A116A220A12B0
:101BC0008A15831203133808CC003708CB00360877
:101BD000CA003508C90008000310720D730DF90022
:101BE0007908031DF42DF52DFE2D0030F300003093
:101BF000F2000030F1000030F0005F2E7008F400B9
:101C00007108F5007208F6007308F7001F30031022
:101C1000F70CF60CF50CF40CFF3E031D072E7408B0
:101C2000F800F217FF30F005FF30F105FF30F20544
:101C30000030F3059630F902F91F1F2E202E382EA2
:101C40007908803A973E0318262E272E282EF52D48
:101C500001300310F30CF20CF10CF00CFF3E031DED
:101C6000292E0130F907031D362E372E282E4F2E30
:101C700020307902031C3D2E3E2E4A2EF52D0130D8
:101C8000F4000310F00DF10DF20DF30DF40B412EE5
:101C90000130F9027908031D4E2E4F2E3F2E780891
:101CA0000319532E542E5F2EF009F109F209F3099E
:101CB000F00A0319F10A0319F20A0319F30A0800DA
:101CC00000307005F80000307105F90080307205B1
:101CD000FA007F307305FB007B087A0479047804EE
:101CE000031D732E742E7C2E0030F3000030F200A2
:101CF0000030F1000030F00000307405F8000030D2
:101D00007505F90080307605FA007F307705FB0015
:101D10007B087A0479047804031D8F2E902E982E68
:101D20000030F7000030F6000030F5000030F4001D
:101D3000F31F9B2E9C2EC02E0030F8000030F900BF
:101D40000030FA008030FB007008F8027108031CB4
:101D5000710FAB2EAC2EF9027208031C720FB12E5C
:101D6000B22EFA027308031C730FB72EB82EFB02B3
:101D70007B08F3007A08F2007908F1007808F00097
:101D8000F71FC32EC42EE82E0030F8000030F900F3
:101D90000030FA008030FB007408F8027508031C5C
:101DA000750FD32ED42EF9027608031C760FD92E88
:101DB000DA2EFA027708031C770FDF2EE02EFB02E3
:101DC0007B08F7007A08F6007908F5007808F40037
:101DD0008030F3068030F70677087302031DFA2E71
:101DE00076087202031DFA2E75087102031DFA2E81
:101DF000740870020318FD2EFE2E002F0310012F11
:101E0000031408000A128A1598250A128A150A1264
:101E10008A159E250A128A15003083120313EC00DE
:101E20000030EB000030EA000030E900003083169B
:101E30000313AB000030AA000030A9000030A80056
:101E40000030A7000030A6000030A5000030A4003C
:101E50000030A3000030A2000030A1000030A0003C
:101E6000523083120313E500E50B342F0000831278
:101E7000031307150A128A15A7250A128A15700876
:101E800083120313E5007108E600E701E801680822
:101E9000F5006708F4006608F3006508F2000030FA
:101EA0000A128A1146200A128A157508831603132E
:101EB000AF007408AE007308AD007208AC002F08C4
:101EC00083120313D400831603132E088312031303
:101ED000D300831603132D0883120313D200831635
:101EE00003132C0883120313D1000A128A11FC2059
:101EF0000A128A1583120313540883160313B500BC
:101F000083120313530883160313B40083120313BD
:101F1000520883160313B300831203135108831668
:101F20000313B2003508F3003408F2003308F1005F
:101F30003208F0000030F7000030F6000030F50005
:101F40000030F4000A128A1560260A128A15031856
:101F5000AA2FAB2FB62F003083160313B500003025
:101F6000B4000030B3000030B200DB2F4430F30087
:101F70007F30F200C030F1000030F0008316031310
:101F80003508F7003408F6003308F5003208F4008D
:101F90000A128A1560260A128A150318D02FD12F2B
:101FA000DB2F443083160313B5007F30B400C030FC
:101FB000B3000030B200831603133508F300340871
:101FC000F2003308F1003208F0000A128A15EC25FD
:101FD0000A128A15710883160313B1007008B00045
:101FE0003108F1003008F0000A128A15B5250A12EE
:101FF0008A15831203130711372F0A128A1100283A
:02400E003A3F37
:00000001FF
