:100000000A128A11F32F00308A000408840A82073A
:100010000034BE3403344634F8340134003402343E
:060020000034013400343D
:100B72008316031305148601071087100711080056
:100B820064008001840A0406031900340406C22D9D
:100B92008130831203139F008030831603139F005A
:100BA2000800831203131F151F19D82DD92DD52D17
:100BB2001E08F100831603131E08F00008007008D7
:100BC2008312031386007108F3007008F2007308A1
:100BD200F200F30101307205F40007087406FE39D1
:100BE200740687007108F3007008F20009300310E0
:100BF200F30CF20CFF3E031DF82D72080139F400CC
:100C0200F40D07087406FD397406870008000030E9
:100C1200FC000030FB000030FA000030F900701CCC
:100C2200132E142E2B2E7408F907750803110318BE
:100C3200013E03191D2EFA07760803110318013E1F
:100C42000319242EFB07770803110318013E031929
:100C52002B2EFC070130F8000310F40DF50DF60DF4
:100C6200F70DF80B2D2E01300310F30CF20CF10CE2
:100C7200F00CFF3E031D352E7308720471047004DC
:100C8200031D442E452E102E7C08F3007B08F20033
:100C92007A08F1007908F00008000A128A11B925D1
:100CA2000A128A110A128A11C9250A128A115230AD
:100CB20083120313B500B50B5C2E000083120313DD
:100CC20007150A128A11D2250A128A117108831293
:100CD2000313BF007008BE003E08B5003F08B6000F
:100CE200B701B8010A300310B50DB60DB70DB80D36
:100CF200FF3E031D742E3808BD003708BC003608BD
:100D0200BB003508BA003D08A3003C08A2003B081E
:100D1200A1003A08A0000A128A11D9260A128A11E1
:100D2200831203132308C3002208C2002108C10052
:100D32002008C000C31F9E2E9F2EA72E0030C30086
:100D42000030C2000030C1000030C0004008B500D1
:100D52004108B6004208B7004308B8000A30B9009B
:100D6200380DB80CB70CB60CB50CB90BB12E360851
:100D7200C5003508C400043045020030031944029E
:100D8200031CC42EC52EC92EFF30C4000330C5007B
:100D92004508F1004408F0000A128A11E0250A12FF
:100DA2008A118312031307115F2E0A128A11002877
:100DB200003083120313B0000030AF000030AE00E9
:100DC2000030AD000030AC000030AB000030AA00B3
:100DD2000030A9002008AD07210803110318013EC5
:100DE2000319F42EAE07220803110318013E03195A
:100DF200FB2EAF07230803110318013E0319022F2C
:100E0200B0075208A4005308A5005408A6005508CC
:100E1200A70001300310A40DA50DA60DA70DFF3EDE
:100E2200031D0B2F2408AD07250803110318013EEB
:100E320003191C2FAE07260803110318013E0319DC
:100E4200232FAF07270803110318013E03192A2F86
:100E5200B0074E08AD074F0803110318013E0319EE
:100E6200332FAE07500803110318013E03193A2F1E
:100E7200AF07510803110318013E0319412FB007B0
:100E82004D08F3004C08F2004B08F1004A08F0004C
:100E9200FF30F700FF30F600F830F5004630F4007E
:100EA2000A128A1108260A128A1170088312031381
:100EB200A907710803110318013E0319612FAA073C
:100EC200720803110318013E0319682FAB07730858
:100ED20003110318013E03196F2FAC074908F300F1
:100EE2004808F2004708F1004608F0000030F70019
:100EF2000030F6000330F500BE30F4000A128A1109
:100F020008260A128A11700883120313A9077108AE
:100F120003110318013E03198F2FAA077208031148
:100F22000318013E0319962FAB0773080311031828
:100F3200013E03199D2FAC072D08A4002E08A50021
:100F42002F08A6003008A7002908A4022A08031CBB
:100F52002A0FAC2FAD2FA5022B08031C2B0FB22F8B
:100F6200B32FA6022C08031C2C0FB82FB92FA702EF
:100F72000A30A800270DA70CA60CA50CA40CA80BE0
:100F8200BB2F2708B4002608B3002508B2002408A6
:100F9200B1005508D1005408D0005308CF005208C0
:100FA200CE002308D5002208D4002108D30020084F
:100FB200D2004D08C9004C08C8004B08C7004A08B7
:100FC200C6003408CD003308CC003208CB0031080B
:100FD200CA003408A3003308A2003208A100310875
:100FE200A000080083134630840056300A128A118A
:0E0FF200C1250A128A1183010A128A114E2E9D
:02400E003A3F37
:00000001FF
