:100000000A128A11F32F00308A000408840A82073A
:100010000034E4340134EB34FA34343400346834DA
:060020000034343400340A
:100B380083160313051486018701080064008001E9
:100B4800840A0406031900340406A32D8130831295
:100B580003139F008E30831603139F00080083122F
:100B680003131F151F19B92DBA2DB62D1E08F10034
:100B7800831603131E08F00008007008831203137D
:100B880086007108F3007008F2007308F200F301A0
:100B980003307205F4000708FC3974048700080064
:100BA8000030FC000030FB000030FA000030F90093
:100BB800701CDF2DE02DF72D7408F9077508031157
:100BC8000318013E0319E92DFA07760803110318E3
:100BD800013E0319F02DFB07770803110318013EA6
:100BE8000319F72DFC070130F8000310F40DF50D7B
:100BF800F60DF70DF80BF92D01300310F30CF20C7C
:100C0800F10CF00CFF3E031D012E730872047104F1
:100C18007004031D102E112EDC2D7C08F3007B08B8
:100C2800F2007A08F1007908F00008000A128A1127
:100C38009C250A128A110A128A11AA250A128A11F7
:100C4800523083120313B500B50B282E000083120F
:100C5800031307150A128A11B3250A128A1171089B
:100C680083120313BF007008BE003E08B5003F089A
:100C7800B600B701B8010A300310B50DB60DB70DAF
:100C8800B80DFF3E031D402E3808BD003708BC00D4
:100C98003608BB003508BA003D08A3003C08A2008E
:100CA8003B08A1003A08A0000A128A11A5260A12D8
:100CB8008A11831203132308C3002208C2002108E3
:100CC800C1002008C000C31F6A2E6B2E732E00308F
:100CD800C3000030C2000030C1000030C00040082E
:100CE800B5004108B6004208B7004308B8000A300A
:100CF800B900380DB80CB70CB60CB50CB90B7D2E75
:100D08003608C5003508C400043045020030031910
:100D18004402031C902E912E952EFF30C400033000
:100D2800C5004508F1004408F0000A128A11C125DF
:100D38000A128A118312031307112B2E0A128A1121
:100D48000028003083120313B0000030AF000030D9
:100D5800AE000030AD000030AC000030AB00003019
:100D6800AA000030A9002308F3002208F200210895
:100D7800F1002008F0000030F7000030F6000030E5
:100D8800F5003430F4000A128A11D4250A128A11A7
:100D9800700883120313AD07710803110318013E8D
:100DA8000319D72EAE07720803110318013E031961
:100DB800DE2EAF07730803110318013E0319E52E51
:100DC800B0075508F3005408F2005308F100520820
:100DD800F0000030F7000030F6000030F500683011
:100DE800F4000A128A11D4250A128A117008831293
:100DF8000313AD07710803110318013E0319052FEA
:100E0800AE07720803110318013E03190C2FAF0730
:100E1800730803110318013E0319132FB007510873
:100E2800F3005008F2004F08F1004E08F0000030BF
:100E3800F7000030F6000030F5003430F4000A12F4
:100E48008A11D4250A128A11700883120313AD0778
:100E5800710803110318013E0319332FAE077208F6
:100E680003110318013E03193A2FAF077308031142
:100E78000318013E0319412FB0074D08F3004C0831
:100E8800F2004B08F1004A08F000FF30F700FF308D
:100E9800F600FA30F500EB30F4000A128A11D42576
:100EA8000A128A11700883120313A9077108031123
:100EB8000318013E0319612FAA07720803110318CA
:100EC800013E0319682FAB07730803110318013E8D
:100ED80003196F2FAC074908F3004808F2004708C8
:100EE800F1004608F0000030F7000030F60001304D
:100EF800F500E430F4000A128A11D4250A128A1186
:100F0800700883120313A907710803110318013E1F
:100F180003198F2FAA07720803110318013E03193A
:100F2800962FAB07730803110318013E03199D2F71
:100F3800AC072D08A4002E08A5002F08A60030082D
:100F4800A7002908A4022A08031C2A0FAC2FAD2FDA
:100F5800A5022B08031C2B0FB22FB32FA6022C08B7
:100F6800031C2C0FB82FB92FA7020A30A800270D91
:100F7800A70CA60CA50CA40CA80BBB2F2708B40023
:100F88002608B3002508B2002408B1005508D1008E
:100F98005408D0005308CF005208CE002308D500CB
:100FA8002208D4002108D3002008D2004D08C90027
:100FB8004C08C8004B08C7004A08C6003408CD00D2
:100FC8003308CC003208CB003108CA003408A3002B
:100FD8003308A2003208A1003108A00008008313DA
:100FE8004630840056300A128A11A2250A128A1144
:080FF80083010A128A111A2E6E
:02400E003A3F37
:00000001FF
